{
  "contractName": "Adoption",
  "abi": [
    {
      "constant": true,
      "inputs": [
        {
          "internalType": "uint256",
          "name": "",
          "type": "uint256"
        }
      ],
      "name": "adopters",
      "outputs": [
        {
          "internalType": "address",
          "name": "",
          "type": "address"
        }
      ],
      "payable": false,
      "stateMutability": "view",
      "type": "function"
    },
    {
      "constant": false,
      "inputs": [
        {
          "internalType": "uint256",
          "name": "_petId",
          "type": "uint256"
        }
      ],
      "name": "adopt",
      "outputs": [
        {
          "internalType": "uint256",
          "name": "",
          "type": "uint256"
        }
      ],
      "payable": false,
      "stateMutability": "nonpayable",
      "type": "function"
    },
    {
      "constant": true,
      "inputs": [],
      "name": "getAdopters",
      "outputs": [
        {
          "internalType": "address[21]",
          "name": "",
          "type": "address[21]"
        }
      ],
      "payable": false,
      "stateMutability": "view",
      "type": "function"
    },
    {
      "constant": false,
      "inputs": [
        {
          "internalType": "uint256",
          "name": "_petId",
          "type": "uint256"
        }
      ],
      "name": "sendBack",
      "outputs": [
        {
          "internalType": "uint256",
          "name": "",
          "type": "uint256"
        }
      ],
      "payable": false,
      "stateMutability": "nonpayable",
      "type": "function"
    }
  ],
  "bytecode": "0x608060405234801561001057600080fd5b506105d8806100206000396000f3fe608060405234801561001057600080fd5b506004361061004c5760003560e01c80633de4eb1714610051578063421b79a61461009757806343ae80d3146100d95780638588b2c514610147575b600080fd5b610059610189565b6040518082601560200280838360005b83811015610084578082015181840152602081019050610069565b5050505090500191505060405180910390f35b6100c3600480360360208110156100ad57600080fd5b810190808035906020019092919050505061020a565b6040518082815260200191505060405180910390f35b610105600480360360208110156100ef57600080fd5b8101908080359060200190929190505050610333565b604051808273ffffffffffffffffffffffffffffffffffffffff1673ffffffffffffffffffffffffffffffffffffffff16815260200191505060405180910390f35b6101736004803603602081101561015d57600080fd5b8101908080359060200190929190505050610366565b6040518082815260200191505060405180910390f35b6101916104d6565b6000601580602002604051908101604052809291908260158015610200576020028201915b8160009054906101000a900473ffffffffffffffffffffffffffffffffffffffff1673ffffffffffffffffffffffffffffffffffffffff16815260200190600101908083116101b6575b5050505050905090565b60003373ffffffffffffffffffffffffffffffffffffffff166000836015811061023057fe5b0160009054906101000a900473ffffffffffffffffffffffffffffffffffffffff1673ffffffffffffffffffffffffffffffffffffffff16146102be576040517f08c379a000000000000000000000000000000000000000000000000000000000815260040180806020018281038252603c81526020018061051c603c913960400191505060405180910390fd5b6102c66104f9565b6000816000600181106102d557fe5b6020020151905080600085601581106102ea57fe5b0160006101000a81548173ffffffffffffffffffffffffffffffffffffffff021916908373ffffffffffffffffffffffffffffffffffffffff1602179055508392505050919050565b6000816015811061034057fe5b016000915054906101000a900473ffffffffffffffffffffffffffffffffffffffff1681565b6000808210158015610379575060138211155b6103ce576040517f08c379a000000000000000000000000000000000000000000000000000000000815260040180806020018281038252602881526020018061057c6028913960400191505060405180910390fd5b600073ffffffffffffffffffffffffffffffffffffffff16600083601581106103f357fe5b0160009054906101000a900473ffffffffffffffffffffffffffffffffffffffff1673ffffffffffffffffffffffffffffffffffffffff1614610481576040517f08c379a00000000000000000000000000000000000000000000000000000000081526004018080602001828103825260248152602001806105586024913960400191505060405180910390fd5b336000836015811061048f57fe5b0160006101000a81548173ffffffffffffffffffffffffffffffffffffffff021916908373ffffffffffffffffffffffffffffffffffffffff160217905550819050919050565b604051806102a00160405280601590602082028038833980820191505090505090565b604051806020016040528060019060208202803883398082019150509050509056fe596f7520617265206e6f7420746865206f776e657220796f752063616e277420736565206261636b20612070657420796f7520646f6e2774206f776e54776f2070656f706c652063616e2774206f776e207468652073616d6520616e696d616c596f757220706574206964206d7573742072656d61696e206265747765656e203020616e64203139a265627a7a72315820dfddd8b80dd38c610f481103e26ad30d835fff11503a2ae0be599984ee9c228164736f6c63430005100032",
  "source": "pragma solidity ^0.5.0;\r\n\r\ncontract Adoption{\r\n    address[21] public adopters;\r\n\r\n    function adopt(uint _petId) public returns(uint){\r\n        require(_petId >= 0 && _petId <= 19, \"Your pet id must remain between 0 and 19\");\r\n        require(adopters[_petId] == 0x0000000000000000000000000000000000000000, \"Two people can't own the same animal\");\r\n        adopters[_petId] = msg.sender;\r\n\r\n        return(_petId);\r\n    }\r\n\r\n    function getAdopters() public view returns(address[21] memory){\r\n        return adopters;\r\n    }\r\n\r\n    function sendBack(uint _petId) public returns(uint){\r\n        require(adopters[_petId] == msg.sender, \"You are not the owner you can't see back a pet you don't own\");\r\n        address[1] memory test; \r\n        address fill = test[0];\r\n        adopters[_petId] = fill;\r\n        return _petId;\r\n    }\r\n}",
  "sourcePath": "C:\\my_projects\\reactNativeProjects\\test\\contracts\\adoption.sol",
  "compiler": {
    "name": "solc",
    "version": "0.5.16+commit.9c3226ce.Emscripten.clang"
  },
  "schemaVersion": "3.0.23",
  "updatedAt": "2020-10-11T02:32:17.005Z",
  "networkType": "ethereum",
  "devdoc": {
    "methods": {}
  },
  "userdoc": {
    "methods": {}
  }
}